{
  "_format": "hh-sol-artifact-1",
  "contractName": "Web3Card",
  "sourceName": "contracts/Web3Card.sol",
  "abi": [
    {
      "inputs": [
        {
          "internalType": "contract ERC2771Forwarder",
          "name": "forwarder",
          "type": "address"
        }
      ],
      "stateMutability": "nonpayable",
      "type": "constructor"
    },
    {
      "inputs": [
        {
          "internalType": "address",
          "name": "_addr",
          "type": "address"
        }
      ],
      "name": "getCid",
      "outputs": [
        {
          "internalType": "string",
          "name": "",
          "type": "string"
        }
      ],
      "stateMutability": "view",
      "type": "function"
    },
    {
      "inputs": [
        {
          "internalType": "address",
          "name": "forwarder",
          "type": "address"
        }
      ],
      "name": "isTrustedForwarder",
      "outputs": [
        {
          "internalType": "bool",
          "name": "",
          "type": "bool"
        }
      ],
      "stateMutability": "view",
      "type": "function"
    },
    {
      "inputs": [
        {
          "internalType": "string",
          "name": "_cid",
          "type": "string"
        }
      ],
      "name": "setCID",
      "outputs": [],
      "stateMutability": "nonpayable",
      "type": "function"
    },
    {
      "inputs": [],
      "name": "trustedForwarder",
      "outputs": [
        {
          "internalType": "address",
          "name": "",
          "type": "address"
        }
      ],
      "stateMutability": "view",
      "type": "function"
    }
  ],
  "bytecode": "0x60a0604052348015600f57600080fd5b506040516105ef3803806105ef833981016040819052602c91603c565b6001600160a01b0316608052606a565b600060208284031215604d57600080fd5b81516001600160a01b0381168114606357600080fd5b9392505050565b60805161055e6100916000396000818160610152818160b30152610207015261055e6000f3fe608060405234801561001057600080fd5b506004361061004c5760003560e01c8063572b6c05146100515780637da0a877146100a6578063c3d6ee7f146100dd578063d3419723146100f2575b600080fd5b61009161005f366004610261565b7f00000000000000000000000000000000000000000000000000000000000000006001600160a01b0390811691161490565b60405190151581526020015b60405180910390f35b6040516001600160a01b037f000000000000000000000000000000000000000000000000000000000000000016815260200161009d565b6100f06100eb366004610291565b610112565b005b610105610100366004610261565b610149565b60405161009d9190610305565b818160008061011f6101f5565b6001600160a01b031681526020810191909152604001600020916101449190836103f1565b505050565b6001600160a01b038116600090815260208190526040902080546060919061017090610369565b80601f016020809104026020016040519081016040528092919081815260200182805461019c90610369565b80156101e95780601f106101be576101008083540402835291602001916101e9565b820191906000526020600020905b8154815290600101906020018083116101cc57829003601f168201915b50505050509050919050565b600036601480821080159061023257507f00000000000000000000000000000000000000000000000000000000000000006001600160a01b031633145b1561025957610246368284038160006104b1565b61024f916104db565b60601c9250505090565b339250505090565b60006020828403121561027357600080fd5b81356001600160a01b038116811461028a57600080fd5b9392505050565b600080602083850312156102a457600080fd5b823567ffffffffffffffff8111156102bb57600080fd5b8301601f810185136102cc57600080fd5b803567ffffffffffffffff8111156102e357600080fd5b8560208284010111156102f557600080fd5b6020919091019590945092505050565b602081526000825180602084015260005b818110156103335760208186018101516040868401015201610316565b506000604082850101526040601f19601f83011684010191505092915050565b634e487b7160e01b600052604160045260246000fd5b600181811c9082168061037d57607f821691505b60208210810361039d57634e487b7160e01b600052602260045260246000fd5b50919050565b601f82111561014457806000526020600020601f840160051c810160208510156103ca5750805b601f840160051c820191505b818110156103ea57600081556001016103d6565b5050505050565b67ffffffffffffffff83111561040957610409610353565b61041d836104178354610369565b836103a3565b6000601f84116001811461045157600085156104395750838201355b600019600387901b1c1916600186901b1783556103ea565b600083815260209020601f19861690835b828110156104825786850135825560209485019460019092019101610462565b508682101561049f5760001960f88860031b161c19848701351681555b505060018560011b0183555050505050565b600080858511156104c157600080fd5b838611156104ce57600080fd5b5050820193919092039150565b80356bffffffffffffffffffffffff198116906014841015610521576bffffffffffffffffffffffff196bffffffffffffffffffffffff198560140360031b1b82161691505b509291505056fea26469706673582212201b86651e6a6b4d6e5911ef8ec97c7580a83318746289e5852e27649195be038964736f6c634300081c0033",
  "linkReferences": {},
  "deployedLinkReferences": {}
}